{
  "contractName": "Battleship",
  "abi": [
    {
      "inputs": [],
      "stateMutability": "nonpayable",
      "type": "constructor"
    },
    {
      "inputs": [
        {
          "internalType": "string",
          "name": "err",
          "type": "string"
        }
      ],
      "name": "ErrorOut",
      "type": "error"
    },
    {
      "anonymous": false,
      "inputs": [
        {
          "indexed": true,
          "internalType": "address",
          "name": "_proposer",
          "type": "address"
        },
        {
          "indexed": false,
          "internalType": "uint256",
          "name": "_assignedMatchID",
          "type": "uint256"
        }
      ],
      "name": "UintOutput",
      "type": "event"
    },
    {
      "anonymous": false,
      "inputs": [
        {
          "indexed": true,
          "internalType": "uint256",
          "name": "_matchID",
          "type": "uint256"
        },
        {
          "indexed": false,
          "internalType": "address",
          "name": "_accused",
          "type": "address"
        },
        {
          "indexed": false,
          "internalType": "address",
          "name": "_accuser",
          "type": "address"
        }
      ],
      "name": "accusationNotify",
      "type": "event"
    },
    {
      "anonymous": false,
      "inputs": [
        {
          "indexed": true,
          "internalType": "uint256",
          "name": "_matchID",
          "type": "uint256"
        },
        {
          "indexed": false,
          "internalType": "address",
          "name": "_attackerAddress",
          "type": "address"
        },
        {
          "indexed": false,
          "internalType": "address",
          "name": "_opponentAddress",
          "type": "address"
        },
        {
          "indexed": false,
          "internalType": "uint256",
          "name": "_attackedRow",
          "type": "uint256"
        },
        {
          "indexed": false,
          "internalType": "uint256",
          "name": "_attackedCol",
          "type": "uint256"
        }
      ],
      "name": "attackNotify",
      "type": "event"
    },
    {
      "anonymous": false,
      "inputs": [
        {
          "indexed": false,
          "internalType": "uint256",
          "name": "_matchID",
          "type": "uint256"
        },
        {
          "indexed": false,
          "internalType": "uint8",
          "name": "_result",
          "type": "uint8"
        },
        {
          "indexed": false,
          "internalType": "address",
          "name": "_attackerAddress",
          "type": "address"
        }
      ],
      "name": "attackResult",
      "type": "event"
    },
    {
      "anonymous": false,
      "inputs": [
        {
          "indexed": true,
          "internalType": "uint256",
          "name": "_matchID",
          "type": "uint256"
        },
        {
          "indexed": false,
          "internalType": "address",
          "name": "_winnerAddr",
          "type": "address"
        },
        {
          "indexed": false,
          "internalType": "address",
          "name": "_loserAddr",
          "type": "address"
        },
        {
          "indexed": false,
          "internalType": "string",
          "name": "_cause",
          "type": "string"
        }
      ],
      "name": "matchFinished",
      "type": "event"
    },
    {
      "anonymous": false,
      "inputs": [
        {
          "indexed": true,
          "internalType": "uint256",
          "name": "_matchID",
          "type": "uint256"
        },
        {
          "indexed": true,
          "internalType": "address",
          "name": "_playerA",
          "type": "address"
        },
        {
          "indexed": true,
          "internalType": "address",
          "name": "_playerB",
          "type": "address"
        }
      ],
      "name": "matchStarted",
      "type": "event"
    },
    {
      "anonymous": false,
      "inputs": [
        {
          "indexed": true,
          "internalType": "address",
          "name": "_playerA",
          "type": "address"
        },
        {
          "indexed": true,
          "internalType": "address",
          "name": "_playerB",
          "type": "address"
        },
        {
          "indexed": false,
          "internalType": "uint256",
          "name": "_stakeTemp",
          "type": "uint256"
        },
        {
          "indexed": true,
          "internalType": "uint256",
          "name": "_matchID",
          "type": "uint256"
        },
        {
          "indexed": false,
          "internalType": "uint256",
          "name": "_boardSize",
          "type": "uint256"
        },
        {
          "indexed": false,
          "internalType": "uint256",
          "name": "_numberOfShips",
          "type": "uint256"
        }
      ],
      "name": "playersJoined",
      "type": "event"
    },
    {
      "anonymous": false,
      "inputs": [
        {
          "indexed": true,
          "internalType": "uint256",
          "name": "_matchID",
          "type": "uint256"
        },
        {
          "indexed": false,
          "internalType": "uint256",
          "name": "_stake",
          "type": "uint256"
        }
      ],
      "name": "stakeAccepted",
      "type": "event"
    },
    {
      "anonymous": false,
      "inputs": [
        {
          "indexed": true,
          "internalType": "uint256",
          "name": "_matchID",
          "type": "uint256"
        },
        {
          "indexed": false,
          "internalType": "uint256",
          "name": "_stake",
          "type": "uint256"
        },
        {
          "indexed": false,
          "internalType": "address",
          "name": "_proposer",
          "type": "address"
        }
      ],
      "name": "stakeProposal",
      "type": "event"
    },
    {
      "anonymous": false,
      "inputs": [
        {
          "indexed": true,
          "internalType": "uint256",
          "name": "_matchID",
          "type": "uint256"
        },
        {
          "indexed": false,
          "internalType": "address",
          "name": "_winnerAddr",
          "type": "address"
        },
        {
          "indexed": false,
          "internalType": "string",
          "name": "_cause",
          "type": "string"
        }
      ],
      "name": "winnerIs",
      "type": "event"
    },
    {
      "inputs": [],
      "name": "activeMatchesCount",
      "outputs": [
        {
          "internalType": "uint256",
          "name": "",
          "type": "uint256"
        }
      ],
      "stateMutability": "view",
      "type": "function",
      "constant": true
    },
    {
      "inputs": [
        {
          "internalType": "uint256",
          "name": "",
          "type": "uint256"
        }
      ],
      "name": "matchList",
      "outputs": [
        {
          "internalType": "address",
          "name": "playerA",
          "type": "address"
        },
        {
          "internalType": "address",
          "name": "playerB",
          "type": "address"
        },
        {
          "internalType": "bool",
          "name": "joinableMatch",
          "type": "bool"
        },
        {
          "internalType": "bool",
          "name": "startedMatch",
          "type": "bool"
        },
        {
          "internalType": "uint256",
          "name": "boardSize",
          "type": "uint256"
        },
        {
          "internalType": "uint256",
          "name": "stake",
          "type": "uint256"
        },
        {
          "internalType": "address",
          "name": "stakeProposer",
          "type": "address"
        },
        {
          "internalType": "uint256",
          "name": "stakeProposal",
          "type": "uint256"
        },
        {
          "internalType": "bytes32",
          "name": "merklePlayerA",
          "type": "bytes32"
        },
        {
          "internalType": "bytes32",
          "name": "merklePlayerB",
          "type": "bytes32"
        },
        {
          "internalType": "uint256",
          "name": "ethPlayerA",
          "type": "uint256"
        },
        {
          "internalType": "uint256",
          "name": "ethPlayerB",
          "type": "uint256"
        },
        {
          "internalType": "uint256",
          "name": "playerANumShips",
          "type": "uint256"
        },
        {
          "internalType": "uint256",
          "name": "playerBNumShips",
          "type": "uint256"
        },
        {
          "internalType": "uint256",
          "name": "fixedShipsNumber",
          "type": "uint256"
        },
        {
          "internalType": "uint256",
          "name": "timeoutForAccusation",
          "type": "uint256"
        },
        {
          "internalType": "address",
          "name": "accusedOpponent",
          "type": "address"
        },
        {
          "internalType": "address",
          "name": "currentPlayerTurn",
          "type": "address"
        }
      ],
      "stateMutability": "view",
      "type": "function",
      "constant": true
    },
    {
      "inputs": [
        {
          "internalType": "uint256",
          "name": "_boardSize",
          "type": "uint256"
        },
        {
          "internalType": "uint256",
          "name": "_numberOfShips",
          "type": "uint256"
        }
      ],
      "name": "NewMatch",
      "outputs": [],
      "stateMutability": "nonpayable",
      "type": "function"
    },
    {
      "inputs": [
        {
          "internalType": "uint256",
          "name": "_matchID",
          "type": "uint256"
        }
      ],
      "name": "JoinMatch",
      "outputs": [],
      "stateMutability": "nonpayable",
      "type": "function"
    },
    {
      "inputs": [],
      "name": "JoinRandom",
      "outputs": [],
      "stateMutability": "nonpayable",
      "type": "function"
    },
    {
      "inputs": [
        {
          "internalType": "uint256",
          "name": "_matchID",
          "type": "uint256"
        },
        {
          "internalType": "uint256",
          "name": "_stake",
          "type": "uint256"
        }
      ],
      "name": "proposeStake",
      "outputs": [],
      "stateMutability": "nonpayable",
      "type": "function"
    },
    {
      "inputs": [
        {
          "internalType": "uint256",
          "name": "_matchID",
          "type": "uint256"
        }
      ],
      "name": "acceptStake",
      "outputs": [],
      "stateMutability": "nonpayable",
      "type": "function"
    },
    {
      "inputs": [
        {
          "internalType": "uint256",
          "name": "_matchID",
          "type": "uint256"
        }
      ],
      "name": "payStake",
      "outputs": [],
      "stateMutability": "payable",
      "type": "function",
      "payable": true
    },
    {
      "inputs": [
        {
          "internalType": "uint256",
          "name": "_matchID",
          "type": "uint256"
        },
        {
          "internalType": "uint256",
          "name": "_attackedRow",
          "type": "uint256"
        },
        {
          "internalType": "uint256",
          "name": "_attackedCol",
          "type": "uint256"
        }
      ],
      "name": "attackOpponent",
      "outputs": [],
      "stateMutability": "nonpayable",
      "type": "function"
    },
    {
      "inputs": [
        {
          "internalType": "bytes32",
          "name": "_merkleroot",
          "type": "bytes32"
        },
        {
          "internalType": "uint256",
          "name": "_matchID",
          "type": "uint256"
        }
      ],
      "name": "registerMerkleRoot",
      "outputs": [],
      "stateMutability": "nonpayable",
      "type": "function"
    },
    {
      "inputs": [
        {
          "internalType": "uint256",
          "name": "_matchID",
          "type": "uint256"
        },
        {
          "internalType": "uint8",
          "name": "_attackResult",
          "type": "uint8"
        },
        {
          "internalType": "bytes32",
          "name": "_attackHash",
          "type": "bytes32"
        },
        {
          "internalType": "bytes32[]",
          "name": "merkleProof",
          "type": "bytes32[]"
        }
      ],
      "name": "submitAttackProof",
      "outputs": [],
      "stateMutability": "nonpayable",
      "type": "function"
    },
    {
      "inputs": [
        {
          "internalType": "uint256",
          "name": "_matchID",
          "type": "uint256"
        },
        {
          "internalType": "int256[]",
          "name": "_cells",
          "type": "int256[]"
        }
      ],
      "name": "verifyBoard",
      "outputs": [],
      "stateMutability": "nonpayable",
      "type": "function"
    },
    {
      "inputs": [
        {
          "internalType": "uint256",
          "name": "_matchID",
          "type": "uint256"
        }
      ],
      "name": "accuseOpponent",
      "outputs": [],
      "stateMutability": "nonpayable",
      "type": "function"
    }
  ],
  "bytecode": "0x6080806040523461001b576000600155611bfd90816100218239f35b600080fdfe60a0604052600436101561001257600080fd5b60003560e01c80630e37dcd0146117b857806310b6c0441461171757806311c7809014611469578063140fc4b51461131b57806320ed10571461107e5780634cf2a68014610f8557806381a4952e14610e3157806381f8c63714610c8257806389c2c23d14610c6457806399fd5a3714610809578063a74aa8fd146106b7578063c8d99a01146101ff5763f28ae7dd146100ab57600080fd5b346101fa576100b936611889565b6100c66000548310611951565b6100ef6100d28361189f565b5054336001600160a01b03918216149081156101e1575b50611b31565b60036100fa8361189f565b5001546101a85780156101635760407fc1f1a0bca1381eb89ff25432ca58f1dc161c6511e4b3aa7219cbe78e1b8ccb989160046101368561189f565b5082600582015501336bffffffffffffffffffffffff60a01b8254161790558151908152336020820152a2005b60405162461bcd60e51b815260206004820152601f60248201527f5374616b65206d7573742062652067726561746572207468616e207a65726f006044820152606490fd5b60405162461bcd60e51b815260206004820152601160248201527014dd185ad948185b1c9958591e481cd95d607a1b6044820152606490fd5b90506101ec8461189f565b5060010154163314386100e9565b600080fd5b346101fa5760803660031901126101fa57600435602480359060ff82168092036101fa576064359067ffffffffffffffff82116101fa57366023830112156101fa578160040135936102508561192a565b9361025e6040519586611908565b858552602093838587019760051b820101903682116101fa578401965b8188106106a857505060ff95506102956000548310611951565b61029e8261189f565b50546001600160a01b03949085163314801561068b575b6102be90611b31565b6102c78361189f565b50600197888092015460a81c16151503610654576102e48361189f565b509260443560009389600099816000925b61060a575b505050878654163381146000146105fa57600a8701549260068801545b60405187810191825287815261032c816118ec565b51902090604051878101918252878152610345816118ec565b519020036105485750898887541691823314928360001461051f57507fd45185e1e8bd558a06c76a6ab710e8dad832aaf2b11b302424bbfdec26d3d29c60608b848b0154165b8c60405191898352858b840152166040820152a1146104d6575b50505b600a8401541580156104ca575b61042f575b505080610424575b6103c857005b6003015480941b93808504600214901517156104105750600080938193829383918315610406575b1690f1156103fa57005b6040513d6000823e3d90fd5b6108fc92506103f0565b634e487b7160e01b60009081526011600452fd5b5082841615156103c2565b909550848354168033146000146104b25750600080516020611b8883398151915260a0868986015416975b89860160ff60a81b19815416905560405190888a168252339082015260606040820152601f60608201527f416c6c2073686970732073756e6b3a206d617463682066696e697368656421006080820152a286806103ba565b60a0600080516020611b88833981519152919761045a565b50600b840154156103b5565b156105095760001981019081116104f457600a8501555b88806103a5565b85634e487b7160e01b60005260116004526000fd5b60001981019081116104f457600b8501556104ed565b60607fd45185e1e8bd558a06c76a6ab710e8dad832aaf2b11b302424bbfdec26d3d29c9161038b565b9850505091508533146000146105dd5781600080516020611b8883398151915260c0878a87015416985b8a870160ff60a81b1981541690558860405191818c168352168582015260606040820152602960608201527f436865617465722064657465637465643a204554482073656e7420746f207468608082015268652077696e6e65722160b81b60a0820152a286916103a8565b81600080516020611b8883398151915260c0878a87015416610572565b600b870154926007880154610317565b909193825185101561064c57610644906106248685611b73565b511860405188810191825288815261063b816118ec565b51902094611942565b9190806102f5565b9350806102fa565b6064906011856040519262461bcd60e51b845260048401528201527013585d18da081b9bdd081cdd185c9d1959607a1b6044820152fd5b506102be6106988461189f565b50600101548616331490506102b5565b8735815296850196850161027b565b346101fa5760603660031901126101fa576004356106d86000548210611951565b6106e18161189f565b50546001600160a01b03908116331480156107ec575b61070090611b31565b6107098261189f565b50600f81019283549033848316036107a7577fb2d5ac2ed092bc820ca85d451975bb38ac9970524b10619dfabdf1fdd7441c4a608085600e8601956bffffffffffffffffffffffff60a01b968781541690556000600d8201558181541633811460001461079e57506001015416955b60405196338852169586602082015260243560408201526044356060820152a216179055005b91505095610778565b60405162461bcd60e51b815260206004820152601760248201527f4e6f7420796f7572207475726e20746f2061747461636b0000000000000000006044820152606490fd5b506107006107f98361189f565b50600101548216331490506106f7565b346101fa5760403660031901126101fa576024600435813567ffffffffffffffff81116101fa57366023820112156101fa5780600401356108498161192a565b916108576040519384611908565b818352602091858385019160051b830101913683116101fa5786849101915b838310610c54575050505061088e6000548410611951565b6108978361189f565b50546001600160a01b039290831633148015610c37575b6108b790611b31565b6108c08461189f565b50906000928483541680331480610c2b575b15610bbe579185600185015416945b600c850154906002860154835181800291808304811490151715610ba95714610a845750505085600080516020611ba883398151915260a060019360408051918a8a168352820152602960408201527f4f70706f6e656e74206465636c61726564206120646966666572656e7420626f6060820152686172642073697a652160b81b6080820152a25b15610a48575060030154908160011b9180830460021490151715610a335760009283928392839283918315610a29575b1690f1156103fa576109ab9061189f565b919091610a15576000600f8382815582600182015582600282015582600382015582600482015582600582015582600682015582600782015582600882015582600982015582600a82015582600b82015582600c82015582600d82015582600e8201550155600080f35b634e487b7160e01b60005260006004526000fd5b6108fc925061099a565b84634e487b7160e01b60005260116004526000fd5b915060030154908160011b9180830460021490151715610a335760009283928392839283918315610a29571690f1156103fa576109ab9061189f565b96939097949198959260009760005b8b51811015610ad3576001610aa8828e611b73565b511215610abe575b610ab990611942565b610a93565b98610acb610ab991611942565b999050610ab0565b5092959890939699508891949710600014610b55579050600080516020611ba883398151915260a060019360408051918a8a168352820152602e60408201527f4f70706f6e656e74206465636c61726564206120646966666572656e74206e7560608201526d6d626572206f662073686970732160901b6080820152a261096a565b90916080600080516020611ba88339815191529160405190898716825260408183015260408201527f455448207472616e7366657272656420746f20796f7572206163636f756e74216060820152a261096a565b8b634e487b7160e01b60005260116004526000fd5b918560018501541680331480610c1f575b15610bdb5792946108e1565b60405162461bcd60e51b815260048101849052601a818b01527f4572726f723a207468657265206973206e6f2077696e6e6572210000000000006044820152606490fd5b50600a85015415610bcf565b50600b840154156108d2565b506108b7610c448561189f565b50600101548416331490506108ae565b8235815291810191849101610876565b346101fa5760003660031901126101fa576020600154604051908152f35b346101fa5760203660031901126101fa57600435610ca36000548210611951565b610cac8161189f565b50610cba6001541515611990565b80546001600160a01b039081168015610dec5760018301918254818116610da75760ff8160a01c1615610d6d57610d147f7172203a6174cc3699ee36aa30f13a238141f6b3a5006971ae04c5cd733b9ca9933314156119d4565b6001600160a81b03191633178355600154610d2e90611a20565b60015580845416925416926005810154610d68600a6002840154930154604051938493846040919493926060820195825260208201520152565b0390a4005b60405162461bcd60e51b81526020600482015260126024820152714d61746368206e6f74206a6f696e61626c6560701b6044820152606490fd5b60405162461bcd60e51b815260206004820152601b60248201527f426f746820706c617965727320616c7265616479206a6f696e656400000000006044820152606490fd5b60405162461bcd60e51b815260206004820152601760248201527f4e6f20706c6179657220696e2074686973206d617463680000000000000000006044820152606490fd5b346101fa5760203660031901126101fa57600435610e526000548210611951565b610e5b8161189f565b50546001600160a01b0390811633148015610f68575b610e7a90611b31565b6005610e858361189f565b50015415610f2357610e968261189f565b5090339060048301541614610ede57602060038260057fccb4477248b42de3f8dc0e70b3dd8f156cb72af7bc5c56e3cadf164ec74995139401549182910155604051908152a2005b60405162461bcd60e51b815260206004820152601c60248201527f43616e6e6f742061636365707420796f7572206f776e207374616b65000000006044820152606490fd5b60405162461bcd60e51b815260206004820152601760248201527f54656d706f72617279207374616b65206e6f74207365740000000000000000006044820152606490fd5b50610e7a610f758361189f565b5060010154821633149050610e71565b346101fa5760403660031901126101fa5760043560243590610faa6000548310611951565b610fb38261189f565b50546001600160a01b0390811633148015611061575b610fd290611b31565b610fdb8361189f565b50918183541633146000146110575760068301555b600782015415158061104a575b61100357005b60018201805460ff60a81b198116600160a81b179091559154918116929116907f6d3823f34c0a4bdf153f07ff328591149ec0ff57e31bd856adbecec9a8f85f88600080a4005b5060068201541515610ffd565b6007830155610ff0565b50610fd261106e8461189f565b5060010154821633149050610fc9565b346101fa5760203660031901126101fa5760043561109f6000548210611951565b6110a88161189f565b50546001600160a01b0391908216331480156112fe575b6110c890611b31565b6110d18161189f565b50600e0154821633146112b9576110e78161189f565b506000806001830191858354163381146000146112b45750858454165b600d8501805415611245575443106111f757505050600e8201549054841690841681036111f1575082815416915b600190600080516020611ba883398151915260a0604051878716815260406020820152602460408201527f41464b2074696d656f757420726561636865643a206d617463682066696e69736060820152636865642160e01b6080820152a25b806111e6575b61119d57005b60030154908160011b91808304600214901517156111d05760009283928392839283918315610406571690f1156103fa57005b634e487b7160e01b600052601160045260246000fd5b508282161515611197565b91611132565b604080516001600160a01b039092168252336020830152929591935090917fc99afa52dc5139ad6950b0eff80053f91db14ac3e086d5cc898aeb8597f0894b9190819081015b0390a2611191565b9091935060059592954301918243116111d057919055600e840180546001600160a01b031916828816179055604080516001600160a01b0390921682523360208301527fc99afa52dc5139ad6950b0eff80053f91db14ac3e086d5cc898aeb8597f0894b91908190810161123d565b611104565b60405162461bcd60e51b815260206004820152601c60248201527f43616e6e6f7420616363757365206f70706f6e656e7420616761696e000000006044820152606490fd5b506110c861130b8261189f565b50600101548316331490506110bf565b346101fa5760203660031901126101fa576004356000548110156101fa576113429061189f565b5060018060a01b0381541690808080808080808080806001810154600282015460ff600384015492600d600c600b600a600960086007600660058d600460018060a01b03910154169d01549d01549d01549d01549d01549d01549d01549d01549d01549d600e60018060a01b03910154169e600f60018060a01b03910154169f604051806080525260018060a01b03811660206080510152818160a01c1615156040608051015260a81c1615156060608051015260808051015260a0608051015260c0608051015260e06080510152610100608051015261012060805101526101406080510152610160608051015261018060805101526101a060805101526101c060805101526101e0608051015261020060805101526102206080510152610240608051f35b346101fa5761147736611889565b81156116dd5760405191610240830183811067ffffffffffffffff8211176116c7576040523383526000602084015260016040840152600060608401526080830152600060a0830152600060c0830152600060e0830152600061010083015260006101208301526000610140830152600061016083015280610180830152806101a08301526101c082015260006101e0820152600061020082015233610220820152600054680100000000000000008110156116c75780600161153d920160005561189f565b6116b157815181546001600160a01b03199081166001600160a01b03928316178355602084015160018085018054604088015160608901516001600160b01b03199092169487169490941793151560a090811b60ff60a01b169490941790151560a81b60ff60a81b161790556080860151600286015590850151600385015560c0850151600485018054841691851691909117905560e085015160058501556101008501516006850155610120850151600785015561014085015160088501556101608501516009850155610180850151600a8501556101a0850151600b8501556101c0850151600c8501556101e0850151600d850155610200850151600e85018054841691851691909117905561022090940151600f939093018054909116929091169190911790555461167190611942565b60015560005460001981019081116111d0576040519081527f98fe6bfadae13408aaa640b94cce01ef446d3cb316585dd37dcfc4ebe23f732960203392a2005b634e487b7160e01b600052600060045260246000fd5b634e487b7160e01b600052604160045260246000fd5b60405162461bcd60e51b8152602060048201526012602482015271496e76616c696420626f6172642073697a6560701b6044820152606490fd5b346101fa5760003660031901126101fa576117356001541515611990565b61173d611a2d565b61174a6000548210611990565b6117538161189f565b5080546001600160a01b039061176d9082163314156119d4565b600182810180546001600160a81b0319163360ff60a01b1916178155905490917f7172203a6174cc3699ee36aa30f13a238141f6b3a5006971ae04c5cd733b9ca991610d2e90611a20565b60203660031901126101fa576004356117d46000548210611951565b6117dd8161189f565b50546001600160a01b039081163314801561186c575b6117fc90611b31565b341561183b5761180b8261189f565b50541633036118305761181f60089161189f565b500161182c348254611b24565b9055005b61181f60099161189f565b60405162461bcd60e51b815260206004820152600960248201526845746820697320302160b81b6044820152606490fd5b506117fc6118798361189f565b50600101548216331490506117f3565b60409060031901126101fa576004359060243590565b9060009182548110156118d85782805260041b7f290decd9548b62a8d60345a988386fc84ba6bc95484008f6362f93160ef3e563019190565b634e487b7160e01b83526032600452602483fd5b6040810190811067ffffffffffffffff8211176116c757604052565b90601f8019910116810190811067ffffffffffffffff8211176116c757604052565b67ffffffffffffffff81116116c75760051b60200190565b60001981146111d05760010190565b1561195857565b60405162461bcd60e51b815260206004820152601060248201526f125b9d985b1a59081b585d18da08125160821b6044820152606490fd5b1561199757565b60405162461bcd60e51b81526020600482015260156024820152744e6f20617661696c61626c65206d6174636865732160581b6044820152606490fd5b156119db57565b60405162461bcd60e51b815260206004820152601d60248201527f596f752061726520616c726561647920696e2074686973206d617463680000006044820152606490fd5b80156111d0576000190190565b60001943014381116111d05740604051611a46816118ec565b602091828252828201928036853760005b818110611aee575050505190206001908154908115611ad857068181018091116111d0576000918254925b838110611a8f5750505090565b60ff82611a9b8361189f565b50015460a01c16611ab5575b611ab090611942565b611a82565b91818114611ad157611ac9611ab091611a20565b929050611aa7565b5050905090565b634e487b7160e01b600052601260045260246000fd5b8351811015611b0e578083611b09921a838287010153611942565b611a57565b634e487b7160e01b600052603260045260246000fd5b919082018092116111d057565b15611b3857565b60405162461bcd60e51b81526020600482015260136024820152722ab730baba3437b934bd32b210383630bcb2b960691b6044820152606490fd5b8051821015611b0e5760209160051b01019056fe2c0ce981493373d7eec23769b9247eeefda0623bb9184788695c268f3ed638e6226d804248e4cfd79c61debb562f2416718108ae633cab58512b64ed903c8e86a26469706673582212206e0e46435fb8e867a23f4662774e4b141753b24393c2d04ba9602bb06b4cd39564736f6c63430008130033",
  "immutableReferences": {},
  "source": "// SPDX-License-Identifier: MIT\npragma solidity >=0.4.22 < 0.9.0;\n\ncontract Battleship {\n\n\n    // Struct to represent a match between two players\n    struct Match {\n        address playerA;             // Address of player A\n        address playerB;             // Address of player B\n        bool joinableMatch;          // Indicates whether the match is joinable\n        bool startedMatch;           // Indicates whether the match has started\n        uint boardSize;              // Size of the board\n        uint stake;                  // Decided amount of the stake for the match\n        address stakeProposer;      // Address of the player who proposed the stake\n        uint stakeProposal;          // Proposed stake amount\n        bytes32 merklePlayerA;       // Merkle root for player A's data\n        bytes32 merklePlayerB;       // Merkle root for player B's data\n        uint ethPlayerA;             // Amount of Ether staked by player A\n        uint ethPlayerB;             // Amount of Ether staked by player B\n        uint playerANumShips;        // Number of ships owned by player A at each turn\n        uint playerBNumShips;        // Number of ships owned by player B at each turn\n        uint fixedShipsNumber;       // Number of ships in the match\n        uint timeoutForAccusation;   // Timeout period for making an accusation\n        address accusedOpponent;     // Address of the accused opponent\n        address currentPlayerTurn;   // Address of the player whose turn it is\n    }\n\n    modifier validMatch(uint _matchID) {\n        // Ensure the provided match ID is within valid range\n        require(_matchID < matchList.length, \"Invalid match ID\");\n        _;\n    }\n\n    modifier onlyPlayer(uint _matchID) {\n        // Ensure the sender is one of the players in the specified match\n        require(matchList[_matchID].playerA == msg.sender || matchList[_matchID].playerB == msg.sender, \"Unauthorized player\");\n        _;\n    }\n\n    modifier notAccused(uint _matchID) {\n        // Ensure the sender is not the accused opponent in the specified match\n        require(matchList[_matchID].accusedOpponent != msg.sender, \"Cannot accuse opponent again\");\n        _;\n    }\n\n    modifier matchNotStarted(uint _matchID) {\n        // Ensure both players have provided their merkle roots, indicating match start\n        require(matchList[_matchID].startedMatch == true, \"Match not started\");\n        _;\n    }\n\n    modifier validSize(uint _size) {\n        // Ensure the provided board size is valid (greater than zero)\n        require(_size > 0, \"Invalid board size\");\n        _;\n    }\n\n    modifier validStake(uint _stake) {\n        // Ensure the provided stake amount is valid (greater than zero)\n        require(_stake > 0, \"Stake must be greater than zero\");\n        _;\n    }\n\n    modifier stakeNotSet(uint _matchID) {\n        // Ensure the stake for the specified match has not been set yet\n        require(matchList[_matchID].stake == 0, \"Stake already set\");\n        _;\n    }\n\n    modifier temporaryStakeSet(uint _matchID) {\n        // Ensure the temporary stake for the specified match has been set\n        require(matchList[_matchID].stakeProposal > 0, \"Temporary stake not set\");\n        _;\n    }\n\n    modifier shipsNotSunk(uint _matchID) {\n        // Ensure at least one player has sunk all their ships in the specified match\n        require(matchList[_matchID].playerANumShips <= 0 || matchList[_matchID].playerBNumShips <= 0, \"Ships not sunked by any player\");\n        _;\n    }\n\n    // Event to notify when players have joined the match\n    event playersJoined(address indexed _playerA,address indexed _playerB,uint _stakeTemp ,uint indexed _matchID,uint _boardSize,uint _numberOfShips);\n\n    // Event to propose the stake of money for the match stake\n    event stakeProposal(uint indexed _matchID,uint _stake,address _proposer);\n\n    // Event to notify that the stake proposal has been accepted\n    event stakeAccepted(uint indexed _matchID,uint _stake);\n\n    // Event to output a uint value\n    event UintOutput(address indexed _proposer,uint _assignedMatchID);\n\n    // Custom error event\n    error ErrorOut(string err);\n\n    // Event to signal the official start of the match\n    event matchStarted(uint indexed _matchID, address indexed _playerA, address indexed _playerB);\n\n    // Event to notify an attack by a player on an opponent\n    event attackNotify(uint indexed _matchID ,address _attackerAddress, address _opponentAddress, uint _attackedRow, uint _attackedCol);\n\n    // Event to indicate the result of an attack\n    event attackResult(uint _matchID, uint8  _result,address _attackerAddress);\n\n    // Event to signal the end of the match and init verification of the winner board\n    event matchFinished(uint indexed _matchID,address _winnerAddr,address _loserAddr,string _cause);\n\n    // Event to notify an accusation made by a player against another player\n    event accusationNotify(uint indexed _matchID,address _accused,address _accuser);\n\n    // Event to notify the winner of the match\n    event winnerIs(uint indexed _matchID,address _winnerAddr, string _cause);\n\n\n    \n    //Array of matches\n    Match[] public matchList;\n\n    // Count of active matches\n    uint public activeMatchesCount;\n\n\n    constructor() {\n        activeMatchesCount = 0;\n    }\n\n\n    /**\n    * @dev Creates a new match.\n    * @param _boardSize The dimension of the board.\n    * @param _numberOfShips The number of ships in the match.\n    */\n    function NewMatch(uint _boardSize, uint _numberOfShips) public validSize(_boardSize) {\n        // Create a new Match and push it to the matchList array\n        // The Match constructor initializes various properties of the match\n        matchList.push(\n            Match(\n                msg.sender,          // Player 1 (creator)\n                address(0),          // Player 2 (not set yet)\n                true,                // Match is joinable\n                false,               // Match has not started yet\n                _boardSize,           // Board dimension\n                0,                   // Game stake (not set yet)\n                address(0),          // Address of player who proposed the stake (not set yet)\n                0,                   // Game stake proposal (not set yet)\n                0,                   // Player 1's Merkle root (not set yet)\n                0,                   // Player 2's Merkle root (not set yet)\n                0,                   // Player 1 ETH stake\n                0,                   // Player 2 ETH stake\n                _numberOfShips,      // Number of ships remaining for player 1\n                _numberOfShips,      // Number of ships remaining for player 2\n                _numberOfShips,      // Number of ships in the match\n                0,                   // Total number of attacks made\n                address(0),          // Address of player who accused (not set yet)\n                msg.sender           // Address of the creator\n            )\n        );\n\n        // Increment the count of open games\n        activeMatchesCount++;\n\n        // Emit an event to indicate the creation of a new match\n        emit UintOutput(msg.sender, matchList.length-1);\n    }\n\n    /**\n    * @dev Join a specific match by index.\n    * @param _matchID The index of the match to join.\n    */\n    function JoinMatch(uint _matchID) validMatch(_matchID) public {\n\n        Match storage matchIstance = matchList[_matchID];\n        require(activeMatchesCount > 0, \"No available matches!\");\n\n        uint returnIndex = _matchID;\n\n        require(matchIstance.playerA != address(0), \"No player in this match\");\n        require(matchIstance.playerB == address(0), \"Both players already joined\");\n        require(matchIstance.joinableMatch, \"Match not joinable\");\n        require(matchIstance.playerA != msg.sender, \"You are already in this match\");\n\n        matchIstance.joinableMatch = false;\n        matchIstance.playerB = msg.sender;\n        activeMatchesCount--;\n\n        emit playersJoined(\n            matchIstance.playerA,\n            matchIstance.playerB,\n            matchIstance.stakeProposal,\n            returnIndex,\n            matchIstance.boardSize,\n            matchIstance.playerANumShips\n        );\n    }\n\n    /**\n    * @dev Join a random available match.\n    */\n    function JoinRandom() public {\n        require(activeMatchesCount > 0, \"No available matches!\");\n\n        uint returnIndex = findJoinableMatch();\n\n        require(returnIndex < matchList.length, \"No available matches!\");\n\n        Match storage matchedGame = matchList[returnIndex];\n        require(matchedGame.playerA != msg.sender, \"You are already in this match\");\n\n\n        matchedGame.playerB = msg.sender;\n        matchedGame.joinableMatch = false;\n        activeMatchesCount--;\n\n        emit playersJoined(\n            matchedGame.playerA,\n            matchedGame.playerB,\n            matchedGame.stakeProposal,\n            returnIndex,\n            matchedGame.boardSize,\n            matchedGame.playerANumShips\n        );\n    }\n\n    /**\n    * @dev Get a random index for an active match.\n    * @return A random index within the range of active matches.\n    * @notice This function generates a random index within the range of active matches\n    *         by obtaining a random value and converting it to a valid index.\n    * @dev Requires:\n    *         - The availability of an external oracle or mechanism for obtaining random values.\n    *         - The activeMatchesCount variable to be set properly.\n    */\n    function getRandomMatchIndex() private view returns (uint) {\n        bytes32 rand = randomValue();\n        return uint(rand) % activeMatchesCount + 1;\n    }\n\n    /**\n    * @dev Find a joinable match based on a random index.\n    * @return The index of the joinable match found or the length of the match list if no joinable match is found.\n    * @notice This function searches for a joinable match based on a random index within the match list.\n    *         It iterates through the match list, checking if each match is joinable.\n    *         When a joinable match is found, its index is returned.\n    *         If no joinable match is found, the function returns the length of the match list.\n    * @dev Requires:\n    *         - The availability of a valid matchList containing match information.\n    *         - The getRandomMatchIndex function to properly generate a random index.\n    */\n    function findJoinableMatch() private view returns (uint) {\n        uint remainingIndex = getRandomMatchIndex(); // Get a random index within the range of active matches.\n\n        // Iterate through the match list to find a joinable match.\n        for (uint i = 0; i < matchList.length; i++) {\n            if (matchList[i].joinableMatch) { // Check if the current match is joinable.\n                if (remainingIndex == 1) { // If the remaining index is 1, we've found the desired match.\n                    return i; // Return the index of the joinable match.\n                }\n                remainingIndex--; // Decrement the remaining index if the current match is not joinable.\n            }\n        }\n        return matchList.length; // No joinable match found, return the length of the match list.\n    }\n\n\n\n    /**\n    * @dev Commit a stake for a specific match.\n    * @param _matchID The ID of the match to commit the stake to.\n    * @param _stake The stake of stake to commit.\n    * @notice This function allows a participant to commit a stake for a match they are part of.\n    *         The stake stake must be greater than zero, the match ID must be valid, and the\n    *         participant must be part of the match. The function emits an event indicating the\n    *         stake committed for the match.\n    * @dev Requires:\n    *         - The creator's address for the given match is not null.\n    *         - The stake is greater than zero and the match ID is within a valid range.\n    *         - The sender is a participant of the match.\n    *         - The stake for the match has not already been decided.\n    */\n    function proposeStake(uint _matchID, uint _stake) public validMatch(_matchID) onlyPlayer(_matchID) stakeNotSet(_matchID) validStake(_stake) {\n\n        Match storage matchIstance = matchList[_matchID];\n        // Update temporary stake and requester for the match\n        matchIstance.stakeProposal = _stake;\n        matchIstance.stakeProposer = msg.sender;\n\n        // Emit an event to indicate the stake to spend for the match\n        emit stakeProposal(_matchID, _stake, msg.sender);\n    }\n\n\n    /**\n    * @dev Accepts a stake for a match.\n    * @param _matchID The ID of the match for which the stake is being accepted.\n    * @notice This function allows players to commit their stakes for a match, provided certain conditions are met.\n    *         The match must exist, both players must have joined, and the sender must be one of the players.\n    *         The requester's address must be valid and not the same as the sender's.\n    *         The match's stake must not be set yet, and the temporary stake must be decided.\n    *         Upon successful stake acceptance, the match's stake is updated with the temporary stake.\n    *         An event is emitted to indicate the stake has been decided.\n    */\n    function acceptStake(uint _matchID) public validMatch(_matchID) onlyPlayer(_matchID) temporaryStakeSet(_matchID) {\n        \n\n        Match storage matchIstance = matchList[_matchID];\n        require(matchIstance.stakeProposer != msg.sender, \"Cannot accept your own stake\");\n        matchIstance.stake = matchIstance.stakeProposal;\n\n        emit stakeAccepted(_matchID, matchIstance.stake);\n    }\n\n\n\n    /**\n    * @dev Send Ether to a specific match for the specified player.\n    * @param _matchID The ID of the match.\n    *                The match ID should be less than the total number of games (matchList.length).\n    * @notice This function allows players to send Ether to a specific match they are part of.\n    *         Players must be registered for the match and only one of the match's players can send Ether at a time.\n    *         Ether sent will be added to the player's balance for the match.\n    * @notice This function requires a non-zero stake of Ether to be sent.\n    * @notice Reverts if the match ID is invalid, players are not set for the match, or sender is not a player of the match.\n    * @param _matchID The ID of the match to send Ether to.\n    */\n    function payStake(uint _matchID) public payable validMatch(_matchID) onlyPlayer(_matchID) {\n\n        // Check if sent Ether stake is greater than 0\n        require(msg.value > 0, \"Eth is 0!\");\n\n        // Update the corresponding player's Ether stake\n        if (matchList[_matchID].playerA == msg.sender) {\n            matchList[_matchID].ethPlayerA += msg.value; // Use \"+=\" to add the sent Ether to existing balance\n        } else {\n            matchList[_matchID].ethPlayerB += msg.value; \n        }\n    }\n\n    /**\n        * @dev Allows a player to attack their opponent in the specified match.\n        * @param _matchID The ID of the match.\n        * @param _attackedRow The row of the attack.\n        * @param _attackedCol The column of the attack.\n        */\n    function attackOpponent(uint _matchID, uint256 _attackedRow, uint256 _attackedCol) public validMatch(_matchID) onlyPlayer(_matchID) {\n            \n            Match storage matchIstance = matchList[_matchID];\n\n            // Check if it's the sender's turn to attack\n            require(matchIstance.currentPlayerTurn == msg.sender, \"Not your turn to attack\");\n\n            // Reset accused player and timeout\n            matchIstance.accusedOpponent = address(0);\n            matchIstance.timeoutForAccusation = 0;\n\n            address opponent = (matchIstance.playerA == msg.sender) ? matchIstance.playerB : matchIstance.playerA;\n\n            // Emit the attack event and update player turn\n            emit attackNotify(_matchID, msg.sender, opponent, _attackedRow, _attackedCol);\n            matchIstance.currentPlayerTurn = opponent;\n        }\n\n\n    /**\n    * @dev Records the provided merkle root for a player in a match, indicating readiness to start the match.\n    * @param _merkleroot The merkle root hash of the player's match data.\n    * @param _matchID The unique identifier of the match.\n    */\n    function registerMerkleRoot(bytes32 _merkleroot, uint _matchID) public validMatch(_matchID) onlyPlayer(_matchID) {\n\n        // Get the reference to the match data using the match ID\n        Match storage matchData = matchList[_matchID];\n\n        // Update the appropriate player's merkle root based on the sender\n        if (msg.sender == matchData.playerA) {\n            matchData.merklePlayerA = _merkleroot;\n        } else {\n            matchData.merklePlayerB = _merkleroot;\n        }\n\n        // Check if both players have provided their merkle roots to start the match\n        if (matchData.merklePlayerB != 0 && matchData.merklePlayerA != 0) {\n\n            matchData.startedMatch = true;\n\n            // Emit an event indicating that the match has started\n            emit matchStarted(_matchID, matchData.playerA, matchData.playerB);\n        }\n    }\n\n\n    /**\n    * @dev Submit an attack proof for a match.\n    * @param _matchID The ID of the match for which the attack proof is being submitted.\n    * @param _attackResult The result of the attack (0 for miss, 1 for hit).\n    * @param _attackHash The hash of the attack data for verification.\n    * @param merkleProof The Merkle proof for verifying the attack.\n    * @notice This function allows a player to submit an attack proof for a match they are part of.\n    *         The function validates the proof against the player's board, handles game mechanics,\n    *         and transfers rewards in case of a valid attack. It also detects cheating attempts.\n    * @dev Requires:\n    *         - The match ID must be valid and ongoing (according to modifiers).\n    *         - The sender must be a participant of the match.\n    * @dev Emits:\n    *         - An attackResult event indicating the outcome of the attack.\n    *         - A matchFinished event if cheating is detected or if all ships are sunk.\n    */\n    function submitAttackProof(uint _matchID, uint8 _attackResult, bytes32 _attackHash, bytes32[] memory merkleProof) public validMatch(_matchID) onlyPlayer(_matchID) matchNotStarted(_matchID) {\n\n        Match storage matchInstance = matchList[_matchID];\n        bytes32 computedMerkleRoot = _attackHash;\n        bool cheaterDetected = false;\n\n        address winner;\n        address loser;\n\n        // Calculate the computed Merkle root using the provided Merkle proof.\n        for (uint i = 0; i < merkleProof.length; i++) {\n            computedMerkleRoot = keccak256(abi.encodePacked(merkleProof[i] ^ computedMerkleRoot));\n        }\n\n        uint256 playerNumShips;\n        bytes32 playerMerkleRoot;\n\n        // Determine the player's Merkle root and the number of their remaining ships.\n        if (matchInstance.playerA == msg.sender) {\n            playerNumShips = matchInstance.playerANumShips;\n            playerMerkleRoot =  matchInstance.merklePlayerA;\n        } else {\n            playerNumShips = matchInstance.playerBNumShips;\n            playerMerkleRoot = matchInstance.merklePlayerB;\n        }\n\n        // Hash the player's Merkle root to compare with the computed Merkle root.\n        playerMerkleRoot = keccak256(abi.encodePacked(playerMerkleRoot));\n        computedMerkleRoot = keccak256(abi.encodePacked(computedMerkleRoot));\n\n        // If the computed Merkle root matches the player's Merkle root, process the attack.\n        if (computedMerkleRoot == playerMerkleRoot) {\n            emit attackResult(_matchID, _attackResult, (msg.sender == matchInstance.playerA) ? matchInstance.playerB : matchInstance.playerA);\n\n            // Handle ship destruction and updates based on the attack result.\n            if (_attackResult == 1) {\n                if (msg.sender == matchInstance.playerA) {\n                    matchInstance.playerANumShips = playerNumShips - 1;\n                } else {\n                    matchInstance.playerBNumShips = playerNumShips - 1;\n                }\n            }\n        } else {\n            // Cheating detected: update winner and loser, finish the match.\n            if (msg.sender == matchInstance.playerA) {\n                winner = matchInstance.playerB;\n                loser = matchInstance.playerA;\n            } else {\n                winner = matchInstance.playerA;\n                loser = matchInstance.playerB;\n            }\n\n            matchInstance.startedMatch = false;\n            emit matchFinished(_matchID, winner, loser, \"Cheater detected: ETH sent to the winner!\");\n            cheaterDetected = true;\n        }\n\n        // Check for match completion conditions and transfer rewards if applicable.\n        if (matchInstance.playerANumShips <= 0 || matchInstance.playerBNumShips <= 0) {\n            if (msg.sender == matchInstance.playerA) {\n                winner = matchInstance.playerB;\n            } else {\n                winner = matchInstance.playerA;\n            }\n\n            matchInstance.startedMatch = false;\n            emit matchFinished(_matchID, winner, msg.sender, \"All ships sunk: match finished!\");\n        }\n\n        // Mitigate reentrancy vulnerability using \"Checks-Effects-Interactions\" pattern. See report for details.\n        if (cheaterDetected && winner != address(0)) {\n            payable(winner).transfer(matchInstance.stake * 2);\n        }\n    }\n\n    /**\n    * @dev Verify the opponent's board after the match is finished.\n    * @param _matchID The ID of the finished match.\n    * @param _cells The array representing the opponent's board cells.\n    * @notice This function allows a player to verify the opponent's board after a match is finished.\n    *         It checks if the board size matches the declared size and if the number of remaining ships\n    *         matches the declared number of ships. If cheating is detected, rewards are transferred.\n    * @dev Requires:\n    *         - The match ID must be valid and finished (according to modifiers).\n    *         - The sender must be a participant of the match.\n    * @dev Emits:\n    *         - A matchFinished event if cheating is detected and rewards are transferred.\n    *         - A matchFinished event if the verification is successful and rewards are transferred.\n    */\n    function verifyBoard(uint _matchID, int256[] memory _cells) public validMatch(_matchID) onlyPlayer(_matchID) {\n\n        Match storage matchInstance = matchList[_matchID];\n        address winner;\n        address loser;\n        uint256 shipsNumber = 0;\n        bool cheaterDetected = false;\n\n        // Determine the winner and loser based on the player's remaining ships.\n        if (msg.sender == matchInstance.playerA && matchInstance.playerBNumShips <= 0) {\n            winner = matchInstance.playerA;\n            loser = matchInstance.playerB;\n        } else if (msg.sender == matchInstance.playerB && matchInstance.playerANumShips <= 0) {\n            winner = matchInstance.playerB;\n            loser = matchInstance.playerA;\n        } else {\n            revert(\"Error: there is no winner!\");\n        }\n\n        shipsNumber = matchInstance.fixedShipsNumber;\n        uint256 declaredSize = matchInstance.boardSize;\n\n        // Check if the actual board size matches the declared size.\n        uint256 actualLength = _cells.length;\n        if (actualLength != declaredSize * declaredSize) {\n            cheaterDetected = true;\n            emit winnerIs(_matchID, loser, \"Opponent declared a different board size!\");\n        } else {\n            // Check if the number of remaining ships matches the declared number of ships.\n            uint shipCount = 0;\n            for (uint i = 0; i < _cells.length; i++) {\n                // Check if the cell contains a ship: >= 1 because hit ships are marked with 2.\n                if (_cells[i] >= 1) {\n                    shipCount++;\n                }\n            }\n\n            if (shipCount < shipsNumber) {\n                // Detected board cheat.\n                cheaterDetected = true;\n                emit winnerIs(_matchID, loser, \"Opponent declared a different number of ships!\");\n            } else {\n                // Winner is legitimate.\n                emit winnerIs(_matchID, winner, \"ETH transferred to your account!\");\n            }\n        }\n\n        // Mitigate reentrancy vulnerability using \"Checks-Effects-Interactions\" pattern.\n        if (cheaterDetected) {\n            payable(loser).transfer(matchInstance.stake * 2);\n        } else {\n            payable(winner).transfer(matchInstance.stake * 2);\n        }\n\n\n        //Match finished, remove it from the list\n        delete matchList[_matchID];\n    }\n\n\n\n    /**\n    * @dev Notifies the opponent to play, triggering a timeout event and potentially ending the match.\n    * @param _matchID The unique identifier of the match.\n    */\n    function accuseOpponent(uint _matchID) public validMatch(_matchID) onlyPlayer(_matchID) notAccused(_matchID) {\n        \n        Match storage matchIstance = matchList[_matchID];\n        address accusedOpponent;\n\n        bool timeoutExceeded = false;\n        address winner;\n        address loser;\n\n        // Determine the accused opponent based on the sender\n        if (matchIstance.playerB == msg.sender) {\n            accusedOpponent = matchIstance.playerA;\n        } else {\n            accusedOpponent = matchIstance.playerB;\n        }\n\n        // Handle timeout scenario\n        if (matchIstance.timeoutForAccusation != 0) {\n            // Check if more than 5 blocks have passed since the notify was triggered\n            if (block.number >= matchIstance.timeoutForAccusation) {\n                // Determine the winner and transfer ETH accordingly\n\n                if (matchIstance.accusedOpponent == matchIstance.playerB) {\n                    winner = matchIstance.playerA;\n                    loser = matchIstance.playerB;\n                } else {\n                    winner = matchIstance.playerB;\n                    loser = matchIstance.playerA;\n                }\n\n                timeoutExceeded = true;\n\n                // End the match due to timeout\n                emit winnerIs(_matchID, winner, \"AFK timeout reached: match finished!\");\n            } else {\n                // Emit accusation notification\n                emit accusationNotify(_matchID, accusedOpponent, msg.sender);\n            }\n        } else {\n            // Set the timeout for accusation and record the accused opponent\n            matchIstance.timeoutForAccusation = block.number + 5;\n            matchIstance.accusedOpponent = accusedOpponent;\n\n            // Emit accusation notification\n            emit accusationNotify(_matchID, accusedOpponent, msg.sender);\n        }\n\n        if(timeoutExceeded && winner != address(0)){\n            // Transfer the stake to the accused opponent\n            payable(winner).transfer(matchIstance.stake * 2);\n        }\n    }\n\n\n    /**\n    * @dev Generates a pseudo-random value based on the current block hash.\n    * @return A pseudo-random bytes32 value.\n    */\n    function randomValue() private view returns (bytes32) {\n        // Retrieve the block hash of the previous block\n        bytes32 previousBlockHash = blockhash(block.number - 1);\n\n        // Copy relevant bytes from the block hash to a new bytes array\n        bytes memory bytesArray = new bytes(32);\n        for (uint i = 0; i < 32; i++) {\n            bytesArray[i] = previousBlockHash[i];\n        }\n\n        // Generate a pseudo-random value using the copied bytes and keccak256\n        bytes32 randValue = keccak256(bytesArray);\n\n        return randValue;\n    }\n\n\n\n}\n\n\n",
  "sourcePath": "/home/af/a22/p2p/p2p/Battleship/contracts/Battleship.sol",
  "compiler": {
    "name": "solc",
    "version": "0.8.19+commit.7dd6d404.Emscripten.clang"
  },
  "schemaVersion": "3.4.13",
  "updatedAt": "2023-12-21T13:13:05.353Z",
  "networkType": "ethereum",
  "devdoc": {
    "kind": "dev",
    "methods": {
      "JoinMatch(uint256)": {
        "details": "Join a specific match by index.",
        "params": {
          "_matchID": "The index of the match to join."
        }
      },
      "JoinRandom()": {
        "details": "Join a random available match."
      },
      "NewMatch(uint256,uint256)": {
        "details": "Creates a new match.",
        "params": {
          "_boardSize": "The dimension of the board.",
          "_numberOfShips": "The number of ships in the match."
        }
      },
      "acceptStake(uint256)": {
        "details": "Accepts a stake for a match.",
        "params": {
          "_matchID": "The ID of the match for which the stake is being accepted."
        }
      },
      "accuseOpponent(uint256)": {
        "details": "Notifies the opponent to play, triggering a timeout event and potentially ending the match.",
        "params": {
          "_matchID": "The unique identifier of the match."
        }
      },
      "attackOpponent(uint256,uint256,uint256)": {
        "details": "Allows a player to attack their opponent in the specified match.",
        "params": {
          "_attackedCol": "The column of the attack.",
          "_attackedRow": "The row of the attack.",
          "_matchID": "The ID of the match."
        }
      },
      "payStake(uint256)": {
        "details": "Send Ether to a specific match for the specified player.",
        "params": {
          "_matchID": "The ID of the match to send Ether to."
        }
      },
      "proposeStake(uint256,uint256)": {
        "details": "Commit a stake for a specific match.Requires:         - The creator's address for the given match is not null.         - The stake is greater than zero and the match ID is within a valid range.         - The sender is a participant of the match.         - The stake for the match has not already been decided.",
        "params": {
          "_matchID": "The ID of the match to commit the stake to.",
          "_stake": "The stake of stake to commit."
        }
      },
      "registerMerkleRoot(bytes32,uint256)": {
        "details": "Records the provided merkle root for a player in a match, indicating readiness to start the match.",
        "params": {
          "_matchID": "The unique identifier of the match.",
          "_merkleroot": "The merkle root hash of the player's match data."
        }
      },
      "submitAttackProof(uint256,uint8,bytes32,bytes32[])": {
        "details": "Submit an attack proof for a match.Requires:         - The match ID must be valid and ongoing (according to modifiers).         - The sender must be a participant of the match.Emits:         - An attackResult event indicating the outcome of the attack.         - A matchFinished event if cheating is detected or if all ships are sunk.",
        "params": {
          "_attackHash": "The hash of the attack data for verification.",
          "_attackResult": "The result of the attack (0 for miss, 1 for hit).",
          "_matchID": "The ID of the match for which the attack proof is being submitted.",
          "merkleProof": "The Merkle proof for verifying the attack."
        }
      },
      "verifyBoard(uint256,int256[])": {
        "details": "Verify the opponent's board after the match is finished.Requires:         - The match ID must be valid and finished (according to modifiers).         - The sender must be a participant of the match.Emits:         - A matchFinished event if cheating is detected and rewards are transferred.         - A matchFinished event if the verification is successful and rewards are transferred.",
        "params": {
          "_cells": "The array representing the opponent's board cells.",
          "_matchID": "The ID of the finished match."
        }
      }
    },
    "version": 1
  },
  "userdoc": {
    "kind": "user",
    "methods": {
      "acceptStake(uint256)": {
        "notice": "This function allows players to commit their stakes for a match, provided certain conditions are met.         The match must exist, both players must have joined, and the sender must be one of the players.         The requester's address must be valid and not the same as the sender's.         The match's stake must not be set yet, and the temporary stake must be decided.         Upon successful stake acceptance, the match's stake is updated with the temporary stake.         An event is emitted to indicate the stake has been decided."
      },
      "payStake(uint256)": {
        "notice": "This function allows players to send Ether to a specific match they are part of.         Players must be registered for the match and only one of the match's players can send Ether at a time.         Ether sent will be added to the player's balance for the match.This function requires a non-zero stake of Ether to be sent.Reverts if the match ID is invalid, players are not set for the match, or sender is not a player of the match."
      },
      "proposeStake(uint256,uint256)": {
        "notice": "This function allows a participant to commit a stake for a match they are part of.         The stake stake must be greater than zero, the match ID must be valid, and the         participant must be part of the match. The function emits an event indicating the         stake committed for the match."
      },
      "submitAttackProof(uint256,uint8,bytes32,bytes32[])": {
        "notice": "This function allows a player to submit an attack proof for a match they are part of.         The function validates the proof against the player's board, handles game mechanics,         and transfers rewards in case of a valid attack. It also detects cheating attempts."
      },
      "verifyBoard(uint256,int256[])": {
        "notice": "This function allows a player to verify the opponent's board after a match is finished.         It checks if the board size matches the declared size and if the number of remaining ships         matches the declared number of ships. If cheating is detected, rewards are transferred."
      }
    },
    "version": 1
  }
}